{"contracts/SimpleStorage.sol":{"SimpleStorage":{"abi":[{"inputs":[{"internalType":"uint256","name":"index","type":"uint256"}],"name":"getMatch","outputs":[{"internalType":"uint256","name":"tournamentId","type":"uint256"},{"internalType":"uint256","name":"matchId","type":"uint256"},{"internalType":"uint256","name":"player1","type":"uint256"},{"internalType":"uint256","name":"player2","type":"uint256"},{"internalType":"uint256","name":"score1","type":"uint256"},{"internalType":"uint256","name":"score2","type":"uint256"},{"internalType":"uint256","name":"winner","type":"uint256"},{"internalType":"uint256","name":"startTime","type":"uint256"},{"internalType":"uint256","name":"endTime","type":"uint256"}],"stateMutability":"view","type":"function"},{"inputs":[],"name":"getMatchCount","outputs":[{"internalType":"uint256","name":"","type":"uint256"}],"stateMutability":"view","type":"function"},{"inputs":[{"internalType":"uint256","name":"","type":"uint256"}],"name":"matches","outputs":[{"internalType":"uint256","name":"tournamentId","type":"uint256"},{"internalType":"uint256","name":"matchId","type":"uint256"},{"internalType":"uint256","name":"player1","type":"uint256"},{"internalType":"uint256","name":"player2","type":"uint256"},{"internalType":"uint256","name":"score1","type":"uint256"},{"internalType":"uint256","name":"score2","type":"uint256"},{"internalType":"uint256","name":"winner","type":"uint256"},{"internalType":"uint256","name":"startTime","type":"uint256"},{"internalType":"uint256","name":"endTime","type":"uint256"}],"stateMutability":"view","type":"function"},{"inputs":[{"internalType":"uint256","name":"tournamentId","type":"uint256"},{"internalType":"uint256","name":"matchId","type":"uint256"},{"internalType":"uint256","name":"player1","type":"uint256"},{"internalType":"uint256","name":"player2","type":"uint256"},{"internalType":"uint256","name":"score1","type":"uint256"},{"internalType":"uint256","name":"score2","type":"uint256"},{"internalType":"uint256","name":"winner","type":"uint256"},{"internalType":"uint256","name":"startTime","type":"uint256"},{"internalType":"uint256","name":"endTime","type":"uint256"}],"name":"newMatch","outputs":[],"stateMutability":"nonpayable","type":"function"}],"evm":{"bytecode":{"linkReferences":{},"object":"6080604052348015600f57600080fd5b506105738061001f6000396000f3fe608060405234801561001057600080fd5b506004361061004c5760003560e01c80633d092b3d146100515780634768d4ef146100895780638c4f7dae146100c1578063c7c952d6146100df575b600080fd5b61006b60048036038101906100669190610360565b6100fb565b6040516100809998979695949392919061039c565b60405180910390f35b6100a3600480360381019061009e9190610360565b6101e2565b6040516100b89998979695949392919061039c565b60405180910390f35b6100c9610240565b6040516100d69190610429565b60405180910390f35b6100f960048036038101906100f49190610444565b61024c565b005b60008060008060008060008060008060008b8154811061011e5761011d61050e565b5b90600052602060002090600902016040518061012001604052908160008201548152602001600182015481526020016002820154815260200160038201548152602001600482015481526020016005820154815260200160068201548152602001600782015481526020016008820154815250509050806000015181602001518260400151836060015184608001518560a001518660c001518760e00151886101000151995099509950995099509950995099509950509193959799909294969850565b600081815481106101f257600080fd5b90600052602060002090600902016000915090508060000154908060010154908060020154908060030154908060040154908060050154908060060154908060070154908060080154905089565b60008080549050905090565b60006040518061012001604052808b81526020018a81526020018981526020018881526020018781526020018681526020018581526020018481526020018381525090506000819080600181540180825580915050600190039060005260206000209060090201600090919091909150600082015181600001556020820151816001015560408201518160020155606082015181600301556080820151816004015560a0820151816005015560c0820151816006015560e082015181600701556101008201518160080155505050505050505050505050565b600080fd5b6000819050919050565b61033d8161032a565b811461034857600080fd5b50565b60008135905061035a81610334565b92915050565b60006020828403121561037657610375610325565b5b60006103848482850161034b565b91505092915050565b6103968161032a565b82525050565b6000610120820190506103b2600083018c61038d565b6103bf602083018b61038d565b6103cc604083018a61038d565b6103d9606083018961038d565b6103e6608083018861038d565b6103f360a083018761038d565b61040060c083018661038d565b61040d60e083018561038d565b61041b61010083018461038d565b9a9950505050505050505050565b600060208201905061043e600083018461038d565b92915050565b60008060008060008060008060006101208a8c03121561046757610466610325565b5b60006104758c828d0161034b565b99505060206104868c828d0161034b565b98505060406104978c828d0161034b565b97505060606104a88c828d0161034b565b96505060806104b98c828d0161034b565b95505060a06104ca8c828d0161034b565b94505060c06104db8c828d0161034b565b93505060e06104ec8c828d0161034b565b9250506101006104fe8c828d0161034b565b9150509295985092959850929598565b7f4e487b7100000000000000000000000000000000000000000000000000000000600052603260045260246000fdfea2646970667358221220b7084dd8e0a7f2f0cf33c1fd275f5550b5e7777bc8142214e824e3240839db6664736f6c634300081c0033","opcodes":"PUSH1 0x80 PUSH1 0x40 MSTORE CALLVALUE DUP1 ISZERO PUSH1 0xF JUMPI PUSH1 0x0 DUP1 REVERT JUMPDEST POP PUSH2 0x573 DUP1 PUSH2 0x1F PUSH1 0x0 CODECOPY PUSH1 0x0 RETURN INVALID PUSH1 0x80 PUSH1 0x40 MSTORE CALLVALUE DUP1 ISZERO PUSH2 0x10 JUMPI PUSH1 0x0 DUP1 REVERT JUMPDEST POP PUSH1 0x4 CALLDATASIZE LT PUSH2 0x4C JUMPI PUSH1 0x0 CALLDATALOAD PUSH1 0xE0 SHR DUP1 PUSH4 0x3D092B3D EQ PUSH2 0x51 JUMPI DUP1 PUSH4 0x4768D4EF EQ PUSH2 0x89 JUMPI DUP1 PUSH4 0x8C4F7DAE EQ PUSH2 0xC1 JUMPI DUP1 PUSH4 0xC7C952D6 EQ PUSH2 0xDF JUMPI JUMPDEST PUSH1 0x0 DUP1 REVERT JUMPDEST PUSH2 0x6B PUSH1 0x4 DUP1 CALLDATASIZE SUB DUP2 ADD SWAP1 PUSH2 0x66 SWAP2 SWAP1 PUSH2 0x360 JUMP JUMPDEST PUSH2 0xFB JUMP JUMPDEST PUSH1 0x40 MLOAD PUSH2 0x80 SWAP10 SWAP9 SWAP8 SWAP7 SWAP6 SWAP5 SWAP4 SWAP3 SWAP2 SWAP1 PUSH2 0x39C JUMP JUMPDEST PUSH1 0x40 MLOAD DUP1 SWAP2 SUB SWAP1 RETURN JUMPDEST PUSH2 0xA3 PUSH1 0x4 DUP1 CALLDATASIZE SUB DUP2 ADD SWAP1 PUSH2 0x9E SWAP2 SWAP1 PUSH2 0x360 JUMP JUMPDEST PUSH2 0x1E2 JUMP JUMPDEST PUSH1 0x40 MLOAD PUSH2 0xB8 SWAP10 SWAP9 SWAP8 SWAP7 SWAP6 SWAP5 SWAP4 SWAP3 SWAP2 SWAP1 PUSH2 0x39C JUMP JUMPDEST PUSH1 0x40 MLOAD DUP1 SWAP2 SUB SWAP1 RETURN JUMPDEST PUSH2 0xC9 PUSH2 0x240 JUMP JUMPDEST PUSH1 0x40 MLOAD PUSH2 0xD6 SWAP2 SWAP1 PUSH2 0x429 JUMP JUMPDEST PUSH1 0x40 MLOAD DUP1 SWAP2 SUB SWAP1 RETURN JUMPDEST PUSH2 0xF9 PUSH1 0x4 DUP1 CALLDATASIZE SUB DUP2 ADD SWAP1 PUSH2 0xF4 SWAP2 SWAP1 PUSH2 0x444 JUMP JUMPDEST PUSH2 0x24C JUMP JUMPDEST STOP JUMPDEST PUSH1 0x0 DUP1 PUSH1 0x0 DUP1 PUSH1 0x0 DUP1 PUSH1 0x0 DUP1 PUSH1 0x0 DUP1 PUSH1 0x0 DUP12 DUP2 SLOAD DUP2 LT PUSH2 0x11E JUMPI PUSH2 0x11D PUSH2 0x50E JUMP JUMPDEST JUMPDEST SWAP1 PUSH1 0x0 MSTORE PUSH1 0x20 PUSH1 0x0 KECCAK256 SWAP1 PUSH1 0x9 MUL ADD PUSH1 0x40 MLOAD DUP1 PUSH2 0x120 ADD PUSH1 0x40 MSTORE SWAP1 DUP2 PUSH1 0x0 DUP3 ADD SLOAD DUP2 MSTORE PUSH1 0x20 ADD PUSH1 0x1 DUP3 ADD SLOAD DUP2 MSTORE PUSH1 0x20 ADD PUSH1 0x2 DUP3 ADD SLOAD DUP2 MSTORE PUSH1 0x20 ADD PUSH1 0x3 DUP3 ADD SLOAD DUP2 MSTORE PUSH1 0x20 ADD PUSH1 0x4 DUP3 ADD SLOAD DUP2 MSTORE PUSH1 0x20 ADD PUSH1 0x5 DUP3 ADD SLOAD DUP2 MSTORE PUSH1 0x20 ADD PUSH1 0x6 DUP3 ADD SLOAD DUP2 MSTORE PUSH1 0x20 ADD PUSH1 0x7 DUP3 ADD SLOAD DUP2 MSTORE PUSH1 0x20 ADD PUSH1 0x8 DUP3 ADD SLOAD DUP2 MSTORE POP POP SWAP1 POP DUP1 PUSH1 0x0 ADD MLOAD DUP2 PUSH1 0x20 ADD MLOAD DUP3 PUSH1 0x40 ADD MLOAD DUP4 PUSH1 0x60 ADD MLOAD DUP5 PUSH1 0x80 ADD MLOAD DUP6 PUSH1 0xA0 ADD MLOAD DUP7 PUSH1 0xC0 ADD MLOAD DUP8 PUSH1 0xE0 ADD MLOAD DUP9 PUSH2 0x100 ADD MLOAD SWAP10 POP SWAP10 POP SWAP10 POP SWAP10 POP SWAP10 POP SWAP10 POP SWAP10 POP SWAP10 POP SWAP10 POP POP SWAP2 SWAP4 SWAP6 SWAP8 SWAP10 SWAP1 SWAP3 SWAP5 SWAP7 SWAP9 POP JUMP JUMPDEST PUSH1 0x0 DUP2 DUP2 SLOAD DUP2 LT PUSH2 0x1F2 JUMPI PUSH1 0x0 DUP1 REVERT JUMPDEST SWAP1 PUSH1 0x0 MSTORE PUSH1 0x20 PUSH1 0x0 KECCAK256 SWAP1 PUSH1 0x9 MUL ADD PUSH1 0x0 SWAP2 POP SWAP1 POP DUP1 PUSH1 0x0 ADD SLOAD SWAP1 DUP1 PUSH1 0x1 ADD SLOAD SWAP1 DUP1 PUSH1 0x2 ADD SLOAD SWAP1 DUP1 PUSH1 0x3 ADD SLOAD SWAP1 DUP1 PUSH1 0x4 ADD SLOAD SWAP1 DUP1 PUSH1 0x5 ADD SLOAD SWAP1 DUP1 PUSH1 0x6 ADD SLOAD SWAP1 DUP1 PUSH1 0x7 ADD SLOAD SWAP1 DUP1 PUSH1 0x8 ADD SLOAD SWAP1 POP DUP10 JUMP JUMPDEST PUSH1 0x0 DUP1 DUP1 SLOAD SWAP1 POP SWAP1 POP SWAP1 JUMP JUMPDEST PUSH1 0x0 PUSH1 0x40 MLOAD DUP1 PUSH2 0x120 ADD PUSH1 0x40 MSTORE DUP1 DUP12 DUP2 MSTORE PUSH1 0x20 ADD DUP11 DUP2 MSTORE PUSH1 0x20 ADD DUP10 DUP2 MSTORE PUSH1 0x20 ADD DUP9 DUP2 MSTORE PUSH1 0x20 ADD DUP8 DUP2 MSTORE PUSH1 0x20 ADD DUP7 DUP2 MSTORE PUSH1 0x20 ADD DUP6 DUP2 MSTORE PUSH1 0x20 ADD DUP5 DUP2 MSTORE PUSH1 0x20 ADD DUP4 DUP2 MSTORE POP SWAP1 POP PUSH1 0x0 DUP2 SWAP1 DUP1 PUSH1 0x1 DUP2 SLOAD ADD DUP1 DUP3 SSTORE DUP1 SWAP2 POP POP PUSH1 0x1 SWAP1 SUB SWAP1 PUSH1 0x0 MSTORE PUSH1 0x20 PUSH1 0x0 KECCAK256 SWAP1 PUSH1 0x9 MUL ADD PUSH1 0x0 SWAP1 SWAP2 SWAP1 SWAP2 SWAP1 SWAP2 POP PUSH1 0x0 DUP3 ADD MLOAD DUP2 PUSH1 0x0 ADD SSTORE PUSH1 0x20 DUP3 ADD MLOAD DUP2 PUSH1 0x1 ADD SSTORE PUSH1 0x40 DUP3 ADD MLOAD DUP2 PUSH1 0x2 ADD SSTORE PUSH1 0x60 DUP3 ADD MLOAD DUP2 PUSH1 0x3 ADD SSTORE PUSH1 0x80 DUP3 ADD MLOAD DUP2 PUSH1 0x4 ADD SSTORE PUSH1 0xA0 DUP3 ADD MLOAD DUP2 PUSH1 0x5 ADD SSTORE PUSH1 0xC0 DUP3 ADD MLOAD DUP2 PUSH1 0x6 ADD SSTORE PUSH1 0xE0 DUP3 ADD MLOAD DUP2 PUSH1 0x7 ADD SSTORE PUSH2 0x100 DUP3 ADD MLOAD DUP2 PUSH1 0x8 ADD SSTORE POP POP POP POP POP POP POP POP POP POP POP POP JUMP JUMPDEST PUSH1 0x0 DUP1 REVERT JUMPDEST PUSH1 0x0 DUP2 SWAP1 POP SWAP2 SWAP1 POP JUMP JUMPDEST PUSH2 0x33D DUP2 PUSH2 0x32A JUMP JUMPDEST DUP2 EQ PUSH2 0x348 JUMPI PUSH1 0x0 DUP1 REVERT JUMPDEST POP JUMP JUMPDEST PUSH1 0x0 DUP2 CALLDATALOAD SWAP1 POP PUSH2 0x35A DUP2 PUSH2 0x334 JUMP JUMPDEST SWAP3 SWAP2 POP POP JUMP JUMPDEST PUSH1 0x0 PUSH1 0x20 DUP3 DUP5 SUB SLT ISZERO PUSH2 0x376 JUMPI PUSH2 0x375 PUSH2 0x325 JUMP JUMPDEST JUMPDEST PUSH1 0x0 PUSH2 0x384 DUP5 DUP3 DUP6 ADD PUSH2 0x34B JUMP JUMPDEST SWAP2 POP POP SWAP3 SWAP2 POP POP JUMP JUMPDEST PUSH2 0x396 DUP2 PUSH2 0x32A JUMP JUMPDEST DUP3 MSTORE POP POP JUMP JUMPDEST PUSH1 0x0 PUSH2 0x120 DUP3 ADD SWAP1 POP PUSH2 0x3B2 PUSH1 0x0 DUP4 ADD DUP13 PUSH2 0x38D JUMP JUMPDEST PUSH2 0x3BF PUSH1 0x20 DUP4 ADD DUP12 PUSH2 0x38D JUMP JUMPDEST PUSH2 0x3CC PUSH1 0x40 DUP4 ADD DUP11 PUSH2 0x38D JUMP JUMPDEST PUSH2 0x3D9 PUSH1 0x60 DUP4 ADD DUP10 PUSH2 0x38D JUMP JUMPDEST PUSH2 0x3E6 PUSH1 0x80 DUP4 ADD DUP9 PUSH2 0x38D JUMP JUMPDEST PUSH2 0x3F3 PUSH1 0xA0 DUP4 ADD DUP8 PUSH2 0x38D JUMP JUMPDEST PUSH2 0x400 PUSH1 0xC0 DUP4 ADD DUP7 PUSH2 0x38D JUMP JUMPDEST PUSH2 0x40D PUSH1 0xE0 DUP4 ADD DUP6 PUSH2 0x38D JUMP JUMPDEST PUSH2 0x41B PUSH2 0x100 DUP4 ADD DUP5 PUSH2 0x38D JUMP JUMPDEST SWAP11 SWAP10 POP POP POP POP POP POP POP POP POP POP JUMP JUMPDEST PUSH1 0x0 PUSH1 0x20 DUP3 ADD SWAP1 POP PUSH2 0x43E PUSH1 0x0 DUP4 ADD DUP5 PUSH2 0x38D JUMP JUMPDEST SWAP3 SWAP2 POP POP JUMP JUMPDEST PUSH1 0x0 DUP1 PUSH1 0x0 DUP1 PUSH1 0x0 DUP1 PUSH1 0x0 DUP1 PUSH1 0x0 PUSH2 0x120 DUP11 DUP13 SUB SLT ISZERO PUSH2 0x467 JUMPI PUSH2 0x466 PUSH2 0x325 JUMP JUMPDEST JUMPDEST PUSH1 0x0 PUSH2 0x475 DUP13 DUP3 DUP14 ADD PUSH2 0x34B JUMP JUMPDEST SWAP10 POP POP PUSH1 0x20 PUSH2 0x486 DUP13 DUP3 DUP14 ADD PUSH2 0x34B JUMP JUMPDEST SWAP9 POP POP PUSH1 0x40 PUSH2 0x497 DUP13 DUP3 DUP14 ADD PUSH2 0x34B JUMP JUMPDEST SWAP8 POP POP PUSH1 0x60 PUSH2 0x4A8 DUP13 DUP3 DUP14 ADD PUSH2 0x34B JUMP JUMPDEST SWAP7 POP POP PUSH1 0x80 PUSH2 0x4B9 DUP13 DUP3 DUP14 ADD PUSH2 0x34B JUMP JUMPDEST SWAP6 POP POP PUSH1 0xA0 PUSH2 0x4CA DUP13 DUP3 DUP14 ADD PUSH2 0x34B JUMP JUMPDEST SWAP5 POP POP PUSH1 0xC0 PUSH2 0x4DB DUP13 DUP3 DUP14 ADD PUSH2 0x34B JUMP JUMPDEST SWAP4 POP POP PUSH1 0xE0 PUSH2 0x4EC DUP13 DUP3 DUP14 ADD PUSH2 0x34B JUMP JUMPDEST SWAP3 POP POP PUSH2 0x100 PUSH2 0x4FE DUP13 DUP3 DUP14 ADD PUSH2 0x34B JUMP JUMPDEST SWAP2 POP POP SWAP3 SWAP6 SWAP9 POP SWAP3 SWAP6 SWAP9 POP SWAP3 SWAP6 SWAP9 JUMP JUMPDEST PUSH32 0x4E487B7100000000000000000000000000000000000000000000000000000000 PUSH1 0x0 MSTORE PUSH1 0x32 PUSH1 0x4 MSTORE PUSH1 0x24 PUSH1 0x0 REVERT INVALID LOG2 PUSH5 0x6970667358 0x22 SLT KECCAK256 0xB7 ADDMOD 0x4D 0xD8 0xE0 0xA7 CALLCODE CREATE 0xCF CALLER 0xC1 REVERT 0x27 PUSH0 SSTORE POP 0xB5 0xE7 PUSH24 0x7BC8142214E824E3240839DB6664736F6C634300081C0033 "},"methodIdentifiers":{"getMatch(uint256)":"3d092b3d","getMatchCount()":"8c4f7dae","matches(uint256)":"4768d4ef","newMatch(uint256,uint256,uint256,uint256,uint256,uint256,uint256,uint256,uint256)":"c7c952d6"}}}}}