{
  "_format": "hh-sol-artifact-1",
  "contractName": "SimpleStorage",
  "sourceName": "contracts/SimpleStorage.sol",
  "abi": [
    {
      "inputs": [
        {
          "internalType": "uint256",
          "name": "index",
          "type": "uint256"
        }
      ],
      "name": "getMatch",
      "outputs": [
        {
          "internalType": "uint256",
          "name": "tournamentId",
          "type": "uint256"
        },
        {
          "internalType": "uint256",
          "name": "matchId",
          "type": "uint256"
        },
        {
          "internalType": "uint256",
          "name": "player1",
          "type": "uint256"
        },
        {
          "internalType": "uint256",
          "name": "player2",
          "type": "uint256"
        },
        {
          "internalType": "uint256",
          "name": "score1",
          "type": "uint256"
        },
        {
          "internalType": "uint256",
          "name": "score2",
          "type": "uint256"
        },
        {
          "internalType": "uint256",
          "name": "winner",
          "type": "uint256"
        },
        {
          "internalType": "uint256",
          "name": "startTime",
          "type": "uint256"
        },
        {
          "internalType": "uint256",
          "name": "endTime",
          "type": "uint256"
        }
      ],
      "stateMutability": "view",
      "type": "function"
    },
    {
      "inputs": [],
      "name": "getMatchCount",
      "outputs": [
        {
          "internalType": "uint256",
          "name": "",
          "type": "uint256"
        }
      ],
      "stateMutability": "view",
      "type": "function"
    },
    {
      "inputs": [
        {
          "internalType": "uint256",
          "name": "",
          "type": "uint256"
        }
      ],
      "name": "matches",
      "outputs": [
        {
          "internalType": "uint256",
          "name": "tournamentId",
          "type": "uint256"
        },
        {
          "internalType": "uint256",
          "name": "matchId",
          "type": "uint256"
        },
        {
          "internalType": "uint256",
          "name": "player1",
          "type": "uint256"
        },
        {
          "internalType": "uint256",
          "name": "player2",
          "type": "uint256"
        },
        {
          "internalType": "uint256",
          "name": "score1",
          "type": "uint256"
        },
        {
          "internalType": "uint256",
          "name": "score2",
          "type": "uint256"
        },
        {
          "internalType": "uint256",
          "name": "winner",
          "type": "uint256"
        },
        {
          "internalType": "uint256",
          "name": "startTime",
          "type": "uint256"
        },
        {
          "internalType": "uint256",
          "name": "endTime",
          "type": "uint256"
        }
      ],
      "stateMutability": "view",
      "type": "function"
    },
    {
      "inputs": [
        {
          "internalType": "uint256",
          "name": "tournamentId",
          "type": "uint256"
        },
        {
          "internalType": "uint256",
          "name": "matchId",
          "type": "uint256"
        },
        {
          "internalType": "uint256",
          "name": "player1",
          "type": "uint256"
        },
        {
          "internalType": "uint256",
          "name": "player2",
          "type": "uint256"
        },
        {
          "internalType": "uint256",
          "name": "score1",
          "type": "uint256"
        },
        {
          "internalType": "uint256",
          "name": "score2",
          "type": "uint256"
        },
        {
          "internalType": "uint256",
          "name": "winner",
          "type": "uint256"
        },
        {
          "internalType": "uint256",
          "name": "startTime",
          "type": "uint256"
        },
        {
          "internalType": "uint256",
          "name": "endTime",
          "type": "uint256"
        }
      ],
      "name": "newMatch",
      "outputs": [],
      "stateMutability": "nonpayable",
      "type": "function"
    }
  ],
  "bytecode": "0x6080604052348015600f57600080fd5b506105738061001f6000396000f3fe608060405234801561001057600080fd5b506004361061004c5760003560e01c80633d092b3d146100515780634768d4ef146100895780638c4f7dae146100c1578063c7c952d6146100df575b600080fd5b61006b60048036038101906100669190610360565b6100fb565b6040516100809998979695949392919061039c565b60405180910390f35b6100a3600480360381019061009e9190610360565b6101e2565b6040516100b89998979695949392919061039c565b60405180910390f35b6100c9610240565b6040516100d69190610429565b60405180910390f35b6100f960048036038101906100f49190610444565b61024c565b005b60008060008060008060008060008060008b8154811061011e5761011d61050e565b5b90600052602060002090600902016040518061012001604052908160008201548152602001600182015481526020016002820154815260200160038201548152602001600482015481526020016005820154815260200160068201548152602001600782015481526020016008820154815250509050806000015181602001518260400151836060015184608001518560a001518660c001518760e00151886101000151995099509950995099509950995099509950509193959799909294969850565b600081815481106101f257600080fd5b90600052602060002090600902016000915090508060000154908060010154908060020154908060030154908060040154908060050154908060060154908060070154908060080154905089565b60008080549050905090565b60006040518061012001604052808b81526020018a81526020018981526020018881526020018781526020018681526020018581526020018481526020018381525090506000819080600181540180825580915050600190039060005260206000209060090201600090919091909150600082015181600001556020820151816001015560408201518160020155606082015181600301556080820151816004015560a0820151816005015560c0820151816006015560e082015181600701556101008201518160080155505050505050505050505050565b600080fd5b6000819050919050565b61033d8161032a565b811461034857600080fd5b50565b60008135905061035a81610334565b92915050565b60006020828403121561037657610375610325565b5b60006103848482850161034b565b91505092915050565b6103968161032a565b82525050565b6000610120820190506103b2600083018c61038d565b6103bf602083018b61038d565b6103cc604083018a61038d565b6103d9606083018961038d565b6103e6608083018861038d565b6103f360a083018761038d565b61040060c083018661038d565b61040d60e083018561038d565b61041b61010083018461038d565b9a9950505050505050505050565b600060208201905061043e600083018461038d565b92915050565b60008060008060008060008060006101208a8c03121561046757610466610325565b5b60006104758c828d0161034b565b99505060206104868c828d0161034b565b98505060406104978c828d0161034b565b97505060606104a88c828d0161034b565b96505060806104b98c828d0161034b565b95505060a06104ca8c828d0161034b565b94505060c06104db8c828d0161034b565b93505060e06104ec8c828d0161034b565b9250506101006104fe8c828d0161034b565b9150509295985092959850929598565b7f4e487b7100000000000000000000000000000000000000000000000000000000600052603260045260246000fdfea2646970667358221220b7084dd8e0a7f2f0cf33c1fd275f5550b5e7777bc8142214e824e3240839db6664736f6c634300081c0033",
  "linkReferences": {},
  "deployedLinkReferences": {}
}